:100000000C9463000C948B000C948B000C948B006C
:100010000C948B000C948B000C948B000C94AD0111
:100020000C948B000C948B000C948B000C948B0024
:100030000C948B000C948B000C948B000C948B0014
:100040000C948E0C0C948B000C94640F0C94960FF3
:100050000C948B000C948B000C948B000C948B00F4
:100060000C948B000C948B0000000008000201002F
:100070000003040700000000000000000102040863
:100080001020408001020408102001020408102002
:10009000040404040404040402020202020203032E
:1000A00003030303000000002300260029000000D2
:1000B0000000250028002B0000000000240027007D
:1000C0002A00D500C60F11241FBECFEFD8E0DEBF37
:1000D000CDBF11E0A0E0B1E0ECEEF6E202C0059089
:1000E0000D92A432B107D9F722E0A4E2B1E001C039
:1000F0001D92AD3AB207E1F710E0C6ECD0E004C0C3
:100100002297FE010E946113C23CD107C9F70E94E9
:10011000C4100C9474130C94000026E040E855E2DF
:1001200060E070E080E192E00E94020F84E391E0E1
:100130000E946C0261E08DE00E94870D60E08DE01E
:100140000C94C00D64E271E084E391E00E943903F5
:10015000892B91F0409128015091290160912A0149
:1001600070912B0120E130E080E192E00E94B1101B
:1001700084E391E00E9483028091280190912901FB
:10018000A0912A01B0912B018F3D9A4FA04BBC4406
:1001900011F461E001C060E08DE00E94C00D68EEE6
:1001A00073E080E090E00C94FB0C60910001709192
:1001B000010184E391E00C946702CF92DF92EF9209
:1001C000FF92CF93DF93EC01882777FD8095982FDE
:1001D0000E94D8116B017C0120E030E040E45FE335
:1001E0000E94881220E030E048E452E40E943D1171
:1001F0000E94A511C617D707D4F020E030E040EAEE
:100200005FE3C701B6010E94881220E030E048E4B5
:1002100052E40E943D1120E030E040E85FE30E949C
:10022000D5100E94A51121E06C177D070CF420E089
:10023000822F90E0DF91CF91FF90EF90DF90CF90F1
:100240000895CF92DF92EF92FF92CF93DF93EC016C
:100250006C597F4F882777FD8095982F0E94D81181
:100260006B017C0120E030E040E45FE30E948812F3
:1002700020E030E048E452E40E943D110E94A511C4
:10028000C617D707D4F020E030E040EA5FE3C701AB
:10029000B6010E94881220E030E048E452E40E9457
:1002A0003D1120E030E040E85FE30E94D5100E945D
:1002B000A51121E06C177D070CF420E0822F90E05F
:1002C000DF91CF91FF90EF90DF90CF900895CF9284
:1002D000DF92EF92FF92CF93DF93EC0164567109A6
:1002E000882777FD8095982F0E94D8116B017C019B
:1002F00020E030E040E45FE30E94881220E030E03C
:1003000048E452E40E943D110E94A511C617D70788
:10031000D4F020E030E040EA5FE3C701B6010E947C
:10032000881220E030E048E452E40E943D1120E0D1
:1003300030E040E85FE30E94D5100E94A51121E063
:100340006C177D070CF420E0822F90E0DF91CF91B5
:10035000FF90EF90DF90CF9008951F920F920FB60D
:100360000F9211242F933F934F935F936F937F933B
:100370008F939F93AF93BF93EF93FF938091360139
:100380000E94F60D20913A0130913B012F5F3F4FC3
:1003900030933B0120933A0190913901953618F042
:1003A00096E090933501909135019430C9F128F48D
:1003B000923069F09330D1F05EC0953009F451C0AD
:1003C000963009F058C091E09093060251C0811117
:1003D00052C020913A0130913B012436310508F496
:1003E00042C010920602109239011CC0813009F0FF
:1003F00042C0E091390191E09E0F90933901F0E005
:1004000020913A0130913B01EE0FFF1FEB5CFE4F54
:100410003087278310923B0110923A0194E029C063
:10042000811117C0E091390191E09E0F909339013D
:10043000F0E020913A0130913B01EE0FFF1FEB5CA1
:10044000FE4F3087278310923B0110923A0193E0D0
:1004500010C020913A0130913B012536310558F00A
:1004600007C0811108C010923B0110923A0103C0ED
:1004700095E090933501909138019923B9F081115D
:100480000AC080913701882321F08091370161E013
:1004900009C02D9A0BC080913701882331F08091DB
:1004A000370160E00E94C00D01C02D98FF91EF91CF
:1004B000BF91AF919F918F917F916F915F914F917C
:1004C0003F912F910F900FBE0F901F901895609342
:1004D0003601109238010895F89482E08093B000BC
:1004E0008093B10094E69093B3001092B200809391
:1004F0007000789480933501109239018091360113
:1005000060E00C94870D82E08093350110923901F0
:1005100008958F929F92AF92BF92CF92DF92EF9207
:10052000FF927B01BA0180E090E00E94D6114B015E
:100530005C01B70180E090E00E94D6116B017C0164
:100540002DEC3CEC4CE45FE30E9488129B01AC0173
:10055000C501B4010E94391187FD17C02DEC3CEC98
:100560004CE45FE3C501B4010E9488129B01AC0119
:10057000C701B6010E943911992787FD90958827F8
:10058000990F881F9927019602C080E090E0FF90A4
:10059000EF90DF90CF90BF90AF909F908F90089595
:1005A0008F929F92AF92BF92CF92DF92EF92FF9283
:1005B0000F931F93CF93DF936C01EB01EC84FD84C9
:1005C00086E0E816F1040CF444C0EE0CFF1C06E0D3
:1005D00010E045EC842E4DE9942E4CE1A42E41E828
:1005E000B42E8A859B85FC01E00FF11F408151816B
:1005F000F8013497E80FF91F60817181C6010E94EC
:100600008902FC01A501940163E971E080E091E0B9
:100610000E94EB124F01AA2497FCA094BA2C8626C4
:100620009726A826B9260E5F1F4F0E151F05C9F67F
:100630008C829D82AE82BF8280E290E0998788871B
:100640008FEF9FEF9983888361E070E080E090E016
:1006500003C060E070E0CB01DF91CF911F910F915B
:10066000FF90EF90DF90CF90BF90AF909F908F90D2
:1006700008950F931F93CF93DF938C01EB018CE3CD
:1006800091E09B878A878091390190E09D878C87D4
:100690008091060290E09F878E878091350185309A
:1006A00009F05EC0C8010E949806882319F081E015
:1006B00090E058C0BE01C8010E94510B8111F7CFD4
:1006C000BE01C8010E94AD0A8111F1CFBE01C8016F
:1006D0000E9409068111EBCFBE01C8010E946F087C
:1006E0008111E5CFBE01C8010E9416098111DFCF3B
:1006F000BE01C8010E9437078111D9CFBE01C801D0
:100700000E947C058111D3CFBE01C8010E94C304A1
:100710008111CDCFBE01C8010E940E0A8111C7CF41
:10072000BE01C8010E94EC0B8111C1CFBE01C801FE
:100730000E94B7038111BBCFBE01C8010E944804CB
:100740008111B5CFBE01C8010E94D002672B682B72
:10075000692B09F0ACCF82E080933501109239010A
:1007600080E090E0DF91CF911F910F910895AF92BB
:10077000BF92CF92DF92EF92FF920F931F93CF938E
:10078000DF93EB0180913901883510F480E075C06A
:10079000EA85FB858281938160E672E20E942101F5
:1007A000892BA1F3EA85FB858481958164E971E158
:1007B0000E946701892B51F3BEE1CB2ED12C1DE1A4
:1007C000E12EF12C00E010E08091390190E00497D7
:1007D000E816F906C4F5EA85FB85C701880F991F5D
:1007E000E80FF91F8081918164EF71E00E9421017F
:1007F000892B61F25601AA0CBB1CEA85FB85EA0D28
:10080000FB1D8081918168E572E00E946701892B60
:1008100021F0000F111F01600EC0EA85FB85EA0D73
:10082000FB1D8081918164EA76E00E946701892B3B
:1008300049F0000F111F82E0E80EF11C82E0C80EA3
:10084000D11CC2CF760181E0E81AF108F594E79453
:10085000F986E8868AE2E816F1040CF497CFC8011D
:10086000AA2797FDA095BA2F8C839D83AE83BF8363
:1008700089E090E09983888381E0DF91CF911F9197
:100880000F91FF90EF90DF90CF90BF90AF900895C1
:10089000AF92BF92CF92DF92EF92FF920F931F938E
:1008A000CF93DF93EB0180913901803211F080E02A
:1008B0005FC0EA85FB85828193816CE271E00E94D2
:1008C0002101892BA1F3EA85FB85848195816EEE58
:1008D00072E00E946701892B51F306E010E0C12C01
:1008E000D12C7601EA85FB85E00FF11F8081918193
:1008F0006CE271E00E942101892BC9F2580182E06B
:10090000A80EB11CEA85FB85EA0DFB1D8081918153
:1009100068E077E00E946701892B39F0CC0CDD1C80
:10092000EE1CFF1C6894C0F811C0EA85FB85EA0D37
:10093000FB1D808191816EEE72E00E946701892B20
:1009400009F4B5CFCC0CDD1CEE1CFF1C0C5F1F4F57
:100950000E33110539F68EE090E099878887CC82B6
:10096000DD82EE82FF828FE090E09983888381E0D0
:10097000DF91CF911F910F91FF90EF90DF90CF907B
:10098000BF90AF900895AF92BF92CF92DF92EF9257
:10099000FF920F931F93CF93DF93EB018091390167
:1009A000823261F5EA85FB858281938168E572E098
:1009B0000E942101892B11F18091390190E0815031
:1009C0009048880F991FEA85FB85E80FF91F808101
:1009D000918168E572E00E942101892B79F01986E6
:1009E00018868FEF9FEFDC018C839D83AE83BF83DE
:1009F00086E090E09983888381E073C0EA85FB8577
:100A00008281938160E47FE10E942101892B21F0A2
:100A100080913901813210F480E063C0EA85FB8562
:100A20008481958160EA7FE00E946701892BA1F3B0
:100A300058E0A52EB12C03E010E0C12CD12C76019A
:100A4000EA85FB85C801880F991FE80FF91F80818F
:100A5000918168E572E00E942101892BE9F2EA8523
:100A6000FB85EA0DFB1D8081918160E476E00E94A8
:100A70006701892B39F0CC0CDD1CEE1CFF1C68943F
:100A8000C0F811C0EA85FB85EA0DFB1D80819181CC
:100A900066E272E00E946701892B09F4BDCFCC0C9D
:100AA000DD1CEE1CFF1C0E5F1F4F84E0A80EB11C66
:100AB0000332110529F6EA85FB85EA5BFF4F808149
:100AC000918168E572E00E942101892B09F4A4CF8D
:100AD00080E190E099878887CC82DD82EE82FF8278
:100AE00087CFDF91CF911F910F91FF90EF90DF9013
:100AF000CF90BF90AF900895AF92BF92CF92DF9208
:100B0000EF92FF920F931F93CF93DF93EB018091AE
:100B10003901893310F480E071C0EA85FB85828158
:100B2000938160E47FE10E942101892BA1F3EA8592
:100B3000FB858481958160EA7FE00E946701892BB3
:100B400051F338E0A32EB12C03E010E0C12CD12CDE
:100B50007601EA85FB85C801880F991FE80FF91F08
:100B60008081918168E572E00E942101892B99F2D0
:100B7000EA85FB85EA0DFB1D8081918160E476E0CA
:100B80000E946701892B39F0CC0CDD1CEE1CFF1C88
:100B90006894C0F811C0EA85FB85EA0DFB1D8081D1
:100BA000918166E272E00E946701892B09F4B3CF5C
:100BB000CC0CDD1CEE1CFF1C0E5F1F4F84E0A80E4A
:100BC000B11C0B33110529F6EA85FB85EA58FF4F66
:100BD0008081918168E572E00E942101892B09F4EE
:100BE0009ACF8CE190E099878887CC82DD82EE8273
:100BF000FF828AE090E09983888381E0DF91CF9142
:100C00001F910F91FF90EF90DF90CF90BF90AF902A
:100C100008956F927F928F929F92AF92BF92CF92E0
:100C2000DF92EF92FF920F931F93CF93DF93EB012D
:100C300080913901823208F461C0EA85FB858281A6
:100C400093816EE571E00E942101892B09F456C061
:100C500063E0A62EB12C02E010E0C12CD12C76016D
:100C600035018091390190E0A816B906E4F54801F4
:100C7000880C991CEA85FB85E80DF91D808191811E
:100C80006EE977E00E942101892B39F0CC0CDD1C44
:100C9000EE1CFF1C6894C0F810C0EA85FB85E80DC7
:100CA000F91D808191816EEE72E00E942101892BF5
:100CB00029F1CC0CDD1CEE1CFF1CC501880F991F0F
:100CC000EA85FB85E80FF91F808191816EE571E06F
:100CD0000E94670122E0A20EB11C892B19F00E5F61
:100CE0001F4FBECF83010150110915950795198734
:100CF00008870031110524F41986188680E009C0A0
:100D0000CC82DD82EE82FF828CE090E09983888342
:100D100081E0DF91CF911F910F91FF90EF90DF90D5
:100D2000CF90BF90AF909F908F907F906F900895DD
:100D3000AF92BF92CF92DF92EF92FF920F931F93E9
:100D4000CF93DF93EB01EA85FB858281938168E293
:100D500073E20E942101892B11F480E07DC0809113
:100D60003901843019F5EA85FB85848195816AEC27
:100D700078E00E946701892BC9F0EA85FB858681AE
:100D8000978160E372E00E942101892B79F0198636
:100D900018868FEF9FEFDC018C839D83AE83BF832A
:100DA00083E090E09983888381E056C08091390187
:100DB000843498F2EA85FB858481958164E971E148
:100DC0000E946701892B49F206E010E0C12CD12C6A
:100DD0007601EA85FB85E00FF11F8081918160E358
:100DE00072E00E942101892B09F4B7CF580182E0FB
:100DF000A80EB11CEA85FB85EA0DFB1D808191815F
:100E00006AE976E00E946701892B39F0CC0CDD1C81
:100E1000EE1CFF1C6894C0F811C0EA85FB85EA0D42
:100E2000FB1D8081918160E372E00E946701892B44
:100E300009F493CFCC0CDD1CEE1CFF1C0C5F1F4F84
:100E40000638110531F680E290E099878887CC82D8
:100E5000DD82EE82FF82A4CFDF91CF911F910F91AF
:100E6000FF90EF90DF90CF90BF90AF9008958F925A
:100E70009F92AF92BF92CF92DF92EF92FF920F9329
:100E80001F93CF93DF9300D000D0CDB7DEB74B01D7
:100E9000DB011A96ED91FC911B97828193816EEA9A
:100EA0007DE00E942101892B11F480E093C0D401E0
:100EB0001A96ED91FC911B978481958166ED76E001
:100EC0000E942101892B89F3E6E0EE2EF12C20E02F
:100ED00030E040E050E0A12CB12CC12CD12CD40149
:100EE0001A96ED91FC911B97EE0DFF1D808191816B
:100EF00066EF71E029833A834B835C830E94210172
:100F0000892B99F287010E5F1F4FD4011A96ED913C
:100F1000FC911B97E00FF11F808191816CED74E0D3
:100F20000E94670129813A814B815C81892B39F0CC
:100F3000B501C60101E00E94281321601DC0D40143
:100F40001A96ED91FC911B97E00FF11F8081918122
:100F500060E971E029833A834B835C830E946701D7
:100F600029813A814B815C81892B09F49ECFB5019F
:100F7000C60101E00E9428135B016C01B4E0EB0E96
:100F8000F11CE6ECEE16F10409F0A9CFD401149699
:100F90002C93149715963C93159716964C93169789
:100FA00017965C931797B501C60100E20E944313A0
:100FB00012962C93129713963C93139785E090E02A
:100FC00011969C938E9380E390E019969C938E9358
:100FD000189781E00F900F900F900F90DF91CF91B5
:100FE0001F910F91FF90EF90DF90CF90BF90AF9047
:100FF0009F908F9008958F929F92AF92BF92CF92C1
:10100000DF92EF92FF920F931F93CF93DF937A01BA
:101010006901DA01CD91DC91FB0184859585C817C2
:10102000D9070CF04AC0CE01880F991F0284F385BE
:10103000E02DE80FF91FA080B180C170DD27F1E03D
:10104000CF27209719F484E690E002C08CE99FEF47
:101050004801880E991EB401C5010E94DD00892B4C
:1010600099F4800E911EB401C5010E94DD00892B08
:1010700071F4B401600F711FC5010E94DD00892B5E
:10108000F9F023E030E005C021E030E002C022E0CA
:1010900030E0D6018D919C911197019682179307AC
:1010A00044F0F60111821082D7018D919C91119725
:1010B00001968D939C93CE0105C081E090E002C023
:1010C0008FEF9FEFDF91CF911F910F91FF90EF90E6
:1010D000DF90CF90BF90AF909F908F9008954F92E8
:1010E0005F926F927F928F929F92AF92BF92CF92B8
:1010F000DF92EF92FF920F931F93CF93DF9300D075
:1011000000D0CDB7DEB76C017B011C821B8281E071
:1011100090E09A838983809139018D3010F480E0CA
:1011200070C009E713E09E012D5F3F4FAE014F5F96
:101130005F4FC6010E94FB07892B89F79E012D5F37
:101140003F4FAE014F5F5F4FB701C6010E94FB07E3
:10115000019729F79E012D5F3F4FAE014F5F5F4F13
:10116000B701C6010E94FB07892BC9F6412C512CFF
:101170003201A12CB12C8091390190E029813A8172
:10118000281739079CF509E713E09E012D5F3F4FB3
:10119000AE014F5F5F4FB701C6010E94FB074C01D4
:1011A0009E012D5F3F4FAE014F5F5F4FB701C601FC
:1011B0000E94FB0721E08216910451F4892B09F06B
:1011C000AECF440C551C661C771C689440F80AC0CE
:1011D000892809F0A4CF019709F0A1CF440C551C30
:1011E000661C771C8FEFA81AB80AC5CFF701B18625
:1011F000A086448255826682778281E090E0918366
:1012000080830F900F900F900F90DF91CF911F91DF
:101210000F91FF90EF90DF90CF90BF90AF909F9095
:101220008F907F906F905F904F9008952F923F9294
:101230004F925F926F927F928F929F92AF92BF92E6
:10124000CF92DF92EF92FF920F931F93CF93DF9392
:1012500000D000D0CDB7DEB76C017B011C821B82B1
:10126000DB011C968D919C911D971816190614F0A0
:1012700080E0BDC0DB011A96ED91FC911B9782E0E6
:1012800090E09A838983828193816AE67AE00E9462
:101290002101892B69F3D7011A96ED91FC911B97D7
:1012A00089819A819C012F5F3F4F3A832983880F60
:1012B000991FE80FF91F8081918169E773E00E940F
:1012C0006701892BA9F20CEB11E09E012D5F3F4FC6
:1012D000AE014F5F5F4FB701C6010E94FB07892B2C
:1012E00039F69E012D5F3F4FAE014F5F5F4FB70153
:1012F000C6010E94FB07019709F0BACF212C312CBF
:101300002101A12CB12C29813A81F7018485958591
:10131000281739070CF060C00CEB11E09E012D5F1F
:101320003F4FAE014F5F5F4FB701C6010E94FB0701
:101330003C01B3E0AB16B10491F00CEB11E09E015F
:101340002D5F3F4FAE014F5F5F4FB701C6010E9457
:10135000FB074C01E3E0AE16B10409F510C00CEB3D
:1013600011E09E012D5F3F4FAE014F5F5F4FB70110
:10137000C6010E94FB0768167906F9F279CF0CEBDB
:1013800011E09E012D5F3F4FAE014F5F5F4FB701F0
:10139000C6010E94FB078816990609F069CF6114FF
:1013A000710459F48A94892809F062CF220C331C05
:1013B000441C551C689420F80BC06A94672809F0F7
:1013C00057CF892809F054CF220C331C441C551CDC
:1013D000AFEFAA1ABA0A97CFB186A08624823582C7
:1013E0004682578282E090E09183808381E00F9073
:1013F0000F900F900F90DF91CF911F910F91FF9061
:10140000EF90DF90CF90BF90AF909F908F907F90A4
:101410006F905F904F903F902F900895AF92BF9242
:10142000CF92DF92EF92FF920F931F93CF93DF93B0
:10143000EB01EA85FB858281938168E873E10E9474
:101440002101892B11F480E07DC080913901843025
:1014500019F5EA85FB85848195816AEC78E00E9424
:101460006701892BC9F0EA85FB858681978160E356
:1014700072E00E942101892B79F0198618868FEF7E
:101480009FEFDC018C839D83AE83BF8387E090E078
:101490009983888381E056C080913901843498F221
:1014A000EA85FB858481958168E873E10E94670184
:1014B000892B49F206E010E0C12CD12C7601EA8597
:1014C000FB85E00FF11F8081918160E372E00E9453
:1014D0002101892B09F4B7CF580182E0A80EB11C75
:1014E000EA85FB85EA0DFB1D8081918160E476E051
:1014F0000E946701892B39F0CC0CDD1CEE1CFF1C0F
:101500006894C0F811C0EA85FB85EA0DFB1D808157
:10151000918160E372E00E946701892B09F493CF07
:10152000CC0CDD1CEE1CFF1C0C5F1F4F0638110598
:1015300031F680E290E099878887CC82DD82EE8266
:10154000FF82A4CFDF91CF911F910F91FF90EF9079
:10155000DF90CF90BF90AF9008958F929F92AF92FF
:10156000BF92CF92DF92EF92FF920F931F93CF9390
:10157000DF93EB01809139018A3108F47AC0EA8562
:10158000FB85808191818032934050F419861886C2
:101590008FEF9FEFDC018C839D83AE83BF836FC091
:1015A000828193816CEA7DE00E942101892B09F4FC
:1015B00060C0EA85FB85848195816CEA7DE00E94AC
:1015C0002101892B09F455C054E0A52EB12C03E06C
:1015D00010E0C12CD12C76018091390190E0A81641
:1015E000B906E4F5EA85FB85C801880F991FE80F65
:1015F000F91F8081918166EB73E00E946701892B5E
:1016000061F14501880C991CEA85FB85E80DF91DFF
:101610008081918160E679E00E942101892B39F077
:10162000CC0CDD1CEE1CFF1C6894C0F810C0EA85D1
:10163000FB85E80DF91D808191816CEB72E00E94C1
:101640002101892BB1F0CC0CDD1CEE1CFF1C0E5FC0
:101650001F4F82E0A80EB11CBFCF850101501109B8
:1016600015950795198708870C30110524F41986FC
:10167000188680E009C0CC82DD82EE82FF828BE09A
:1016800090E09983888381E0DF91CF911F910F9142
:10169000FF90EF90DF90CF90BF90AF909F908F9092
:1016A00008958F929F92AF92BF92CF92DF92EF9266
:1016B000FF920F931F93CF93DF93EB01809139013A
:1016C0008A3108F471C0EA85FB8580819181843F6D
:1016D000914060F4198618868FEF9FEFDC018C83B0
:1016E0009D83AE83BF838BE090E066C0828193814F
:1016F00060E679E00E942101892B09F455C073E06E
:10170000A72EB12C02E010E0C12CD12C76018091E3
:10171000390190E0A816B906E4F5EA85FB85C80111
:10172000880F991FE80FF91F8081918168E572E0A9
:101730000E946701892B61F14501880C991CEA859B
:10174000FB85E80DF91D8081918160EB74E00E94BA
:101750002101892B39F0CC0CDD1CEE1CFF1C689498
:10176000C0F810C0EA85FB85E80DF91D80819181E4
:1017700068E572E00E942101892BB1F0CC0CDD1CE0
:10178000EE1CFF1C0E5F1F4F82E0A80EB11CBFCFE6
:1017900085010150110915950795198708870C30A7
:1017A000110524F41986188680E009C0CC82DD82F8
:1017B000EE82FF8284E090E09983888381E0DF916C
:1017C000CF911F910F91FF90EF90DF90CF90BF903E
:1017D000AF909F908F900895AF92BF92CF92DF927B
:1017E000EF92FF920F931F93CF93DF93EB018091C2
:1017F0003901863410F480E086C0EA85FB85828159
:1018000093816EEE72E00E942101892BA1F3EA859B
:10181000FB85848195816EEE72E00E946701892BC1
:1018200051F3EA85FB858681978162E27BE00E9425
:101830002101892B01F3EA85FB858085918562E290
:101840007BE00E946701892BB1F25CE0A52EB12CF0
:1018500005E010E0C12CD12C7601EA85FB85C8019A
:10186000880F991FE80FF91F808191816EEE72E059
:101870000E942101892B09F4BECFEA85FB85EA0D80
:10188000FB1D8081918166E678E00E946701892BCB
:1018900039F0CC0CDD1CEE1CFF1C6894C0F811C0A4
:1018A000EA85FB85EA0DFB1D808191816EEE72E079
:1018B0000E946701892B09F49ECFCC0CDD1CEE1C25
:1018C000FF1C0E5F1F4F84E0A80EB11C05341105EC
:1018D00021F6EA85FB85E657FF4F808191816EEE08
:1018E00072E00E942101892B09F485CF80E290E00B
:1018F00099878887CC82DD82EE82FF8288E090E043
:101900009983888381E0DF91CF911F910F91FF90A0
:10191000EF90DF90CF90BF90AF9008951F920F92FD
:101920000FB60F9211242F933F938F939F93AF93F2
:10193000BF938091080290910902A0910A02B09190
:101940000B023091070223E0230F2D3720F401967C
:10195000A11DB11D05C026E8230F0296A11DB11DD2
:10196000209307028093080290930902A0930A0231
:10197000B0930B0280910C0290910D02A0910E0287
:10198000B0910F020196A11DB11D80930C0290939E
:101990000D02A0930E02B0930F02BF91AF919F91E1
:1019A0008F913F912F910F900FBE0F901F90189520
:1019B0003FB7F89480910C0290910D02A0910E0215
:1019C000B0910F0226B5A89B05C02F3F19F00196D4
:1019D000A11DB11D3FBF6627782F892F9A2F620F57
:1019E000711D811D911D42E0660F771F881F991F91
:1019F0004A95D1F70895CF92DF92EF92FF92CF935D
:101A0000DF936B017C010E94D80CEB01C114D1045F
:101A1000E104F10489F00E94D3100E94D80C6C1BE1
:101A20007D0B683E734090F381E0C81AD108E1084D
:101A3000F108C851DC4FEACFDF91CF91FF90EF90D2
:101A4000DF90CF900895789484B5826084BD84B58A
:101A5000816084BD85B5826085BD85B5816085BDA9
:101A6000EEE6F0E0808181608083E1E8F0E01082C2
:101A7000808182608083808181608083E0E8F0E003
:101A8000808181608083E1EBF0E0808184608083ED
:101A9000E0EBF0E0808181608083EAE7F0E0808124
:101AA0008460808380818260808380818160808384
:101AB0008081806880831092C1000895833081F016
:101AC00028F4813099F08230A1F008958730A9F090
:101AD0008830B9F08430D1F4809180008F7D03C0CC
:101AE000809180008F7780938000089584B58F77F0
:101AF00002C084B58F7D84BD08958091B0008F773A
:101B000003C08091B0008F7D8093B0000895CF9383
:101B1000DF9390E0FC01E458FF4F2491FC01E05773
:101B2000FF4F8491882349F190E0880F991FFC01B1
:101B3000E854FF4FA591B49182559F4FFC01C59188
:101B4000D4919FB7611108C0F8948C91209582239D
:101B50008C93888182230AC0623051F4F8948C916E
:101B6000322F309583238C938881822B888304C005
:101B7000F8948C91822B8C939FBFDF91CF91089525
:101B80000F931F93CF93DF931F92CDB7DEB7282F0C
:101B900030E0F901E859FF4F8491F901E458FF4F13
:101BA0001491F901E057FF4F04910023C9F08823F5
:101BB00021F069830E945E0D6981E02FF0E0EE0F55
:101BC000FF1FE255FF4FA591B4919FB7F8948C91F8
:101BD000611103C01095812301C0812B8C939FBF9D
:101BE0000F90DF91CF911F910F910895CF93DF93C5
:101BF000282F30E0F901E859FF4F8491F901E458AA
:101C0000FF4FD491F901E057FF4FC491CC2391F0DD
:101C100081110E945E0DEC2FF0E0EE0FFF1FEC55DE
:101C2000FF4FA591B4912C912D2381E090E021F4F8
:101C300080E002C080E090E0DF91CF910895FC0148
:101C4000818D228D90E0805C9F4F821B91098F7364
:101C500099270895FC01918D828D981731F0828D1E
:101C6000E80FF11D858D90E008958FEF9FEF0895A7
:101C7000FC01918D828D981761F0828DDF01A80F94
:101C8000B11D5D968C91928D9F5F9F73928F90E0B6
:101C900008958FEF9FEF08958CEB9FE0892B49F01B
:101CA00080E090E0892B29F00E94BC0F81110C94F8
:101CB00000000895FC01848DDF01A80FB11DA35A17
:101CC000BF4F2C91848D90E001968F739927848F5C
:101CD000A689B7892C93A089B1898C9180648C9353
:101CE000938D848D981306C00288F389E02D80813E
:101CF0008F7D80830895CF93DF93EC01888D8823B7
:101D0000C9F0EA89FB89808185FD05C0A889B98968
:101D10008C9186FD0FC00FB607FCF5CF808185FF43
:101D2000F2CFA889B9898C9185FFEDCFCE010E94B1
:101D30005A0EE7CFDF91CF910895CF92DF92FF92B5
:101D40000F931F93CF93DF931F92CDB7DEB76C0134
:101D500081E0D60158968C9358975B969C915B973F
:101D60005C968C915C97981307C05096ED91FC910E
:101D70005197808185FD2EC0F601038D10E00F5F25
:101D80001F4F0F731127F02EF601848DF81211C02A
:101D90000FB607FCF9CFD6015096ED91FC91519703
:101DA000808185FFF1CFC60169830E945A0E698147
:101DB000EBCF838DE80FF11DE35AFF4F6083D6010F
:101DC0005B960C935B975296ED91FC9153978081B3
:101DD00080620CC0D6015696ED91FC9157976083B6
:101DE0005096ED91FC91519780818064808381E0D1
:101DF00090E00F90DF91CF911F910F91FF90DF90B6
:101E0000CF900895BF92CF92DF92EF92FF92CF933F
:101E1000DF93EC016A017B01B22EE889F98982E047
:101E20008083411581EE580761057105A1F060E0DE
:101E300079E08DE390E0A70196010E94FB1221500A
:101E4000310941095109569547953795279521152F
:101E500080E1380798F0E889F989108260E874E831
:101E60008EE190E0A70196010E94FB1221503109FA
:101E7000410951095695479537952795EC85FD857C
:101E80003083EE85FF852083188EEC89FD89B08232
:101E9000EA89FB89808180618083EA89FB8980816E
:101EA00088608083EA89FB89808180688083EA89F1
:101EB000FB8980818F7D8083DF91CF91FF90EF90B0
:101EC000DF90CF90BF9008951F920F920FB60F92A0
:101ED00011242F938F939F93EF93FF93E091200210
:101EE000F09121028081E0912602F091270282FD8B
:101EF00012C09081809129028F5F8F7320912A02F6
:101F0000821751F0E0912902F0E0E05FFD4F958FDC
:101F10008093290201C08081FF91EF919F918F9161
:101F20002F910F900FBE0F901F9018951F920F9238
:101F30000FB60F9211242F933F934F935F936F939C
:101F40007F938F939F93AF93BF93EF93FF9380E122
:101F500092E00E945A0EFF91EF91BF91AF919F9135
:101F60008F917F916F915F914F913F912F910F9042
:101F70000FBE0F901F90189580E192E00E941F0EF7
:101F800021E0892B09F420E0822F0895109213029A
:101F90001092120288EE93E0A0E0B0E08093140269
:101FA00090931502A0931602B093170286E091E079
:101FB000909311028093100285EC90E090931D02A3
:101FC00080931C0284EC90E090931F0280931E0289
:101FD00080EC90E0909321028093200281EC90E0CD
:101FE000909323028093220282EC90E0909325024A
:101FF0008093240286EC90E090932702809326023F
:102000001092290210922A0210922B0210922C0296
:102010000895CF92DF92EF92FF920F931F93CF9389
:10202000DF937C016A01EB0100E010E00C151D0557
:1020300071F06991D701ED91FC910190F081E02D53
:10204000C7010995892B19F00F5F1F4FEFCFC8010A
:10205000DF91CF911F910F91FF90EF90DF90CF9084
:1020600008956115710581F0DB010D900020E9F7FD
:10207000AD0141505109461B570BDC01ED91FC911C
:102080000280F381E02D099480E090E0089562E100
:1020900071E00C9431108F929F92AF92BF92CF92C9
:1020A000DF92EF92FF920F931F93CF93DF93CDB701
:1020B000DEB7A1970FB6F894DEBF0FBECDBF7C018F
:1020C000C42EE52FCB01D22E19A221E02D1510F040
:1020D0002AE0D22E8E010F5D1F4F8D2C912CA12C4A
:1020E000B12C6C2D7E2FA50194010E94FB128C2D2A
:1020F000D29E80191124015011098A3014F4805D98
:1021000001C0895CF8018083211531054105510525
:1021100021F0C22EE32FCA01E4CFB801C7010E940B
:102120003110A1960FB6F894DEBF0FBECDBFDF9180
:10213000CF911F910F91FF90EF90DF90CF90BF90C4
:10214000AF909F908F9008952115310541F4DC01E7
:10215000ED91FC910190F081E02D642F09940C9495
:102160004B100F931F93CF93DF93EC010E94A410A9
:102170008C01CE010E944710800F911FDF91CF91FB
:102180001F910F91089508950E94230D0E94C3107E
:102190000E948D00CCE4DEE00E94A2002097E1F3D3
:1021A0000E944C0EF9CF08955058BB27AA270ED095
:1021B00075C166D130F06BD120F031F49F3F11F43E
:1021C0001EF45BC10EF4E095E7FB51C1E92F77D116
:1021D00080F3BA17620773078407950718F071F444
:1021E0009EF58FC10EF4E0950B2EBA2FA02D0B019A
:1021F000B90190010C01CA01A0011124FF27591B4C
:1022000099F0593F50F4503E68F11A16F040A22F51
:10221000232F342F4427585FF3CF469537952795C2
:10222000A795F0405395C9F77EF41F16BA0B620BC1
:10223000730B840BBAF09150A1F0FF0FBB1F661F08
:10224000771F881FC2F70EC0BA0F621F731F841F4B
:1022500048F4879577956795B795F7959E3F08F071
:10226000B3CF9395880F08F09927EE0F9795879530
:102270000895D9D008F481E008950CD00FC107D19A
:1022800040F0FED030F021F45F3F19F0F0C0511162
:1022900039C1F3C014D198F39923C9F35523B1F38D
:1022A000951B550BBB27AA2762177307840738F0C5
:1022B0009F5F5F4F220F331F441FAA1FA9F333D024
:1022C0000E2E3AF0E0E830D091505040E695001CD8
:1022D000CAF729D0FE2F27D0660F771F881FBB1F94
:1022E000261737074807AB07B0E809F0BB0B802D6E
:1022F000BF01FF2793585F4F2AF09E3F510568F0BA
:10230000B6C000C15F3FECF3983EDCF3869577954D
:102310006795B795F7959F5FC9F7880F911D9695BB
:10232000879597F90895E1E0660F771F881FBB1F17
:10233000621773078407BA0720F0621B730B840BC4
:10234000BA0BEE1F88F7E095089504D06894B11198
:10235000D9C00895BCD088F09F5790F0B92F992725
:10236000B751A0F0D1F0660F771F881F991F1AF0A0
:10237000BA95C9F712C0B13081F0C3D0B1E0089569
:10238000C0C0672F782F8827B85F39F0B93FCCF3EA
:10239000869577956795B395D9F73EF49095809596
:1023A000709561957F4F8F4F9F4F0895E89409C0B6
:1023B00097FB3EF490958095709561957F4F8F4F78
:1023C0009F4F9923A9F0F92F96E9BB279395F6958E
:1023D000879577956795B795F111F8CFFAF4BB0F0C
:1023E00011F460FF1BC06F5F7F4F8F4F9F4F16C070
:1023F000882311F096E911C0772321F09EE8872FFA
:10240000762F05C0662371F096E8862F70E060E0B5
:102410002AF09A95660F771F881FDAF7880F96952E
:10242000879597F90895990F0008550FAA0BE0E8D2
:10243000FEEF16161706E807F907C0F01216130686
:10244000E407F50798F0621B730B840B950B39F4C6
:102450000A2661F0232B242B252B21F408950A262C
:1024600009F4A140A6958FEF811D811D089597F96C
:102470009F6780E870E060E008959FEF80EC08952A
:1024800000240A9416161706180609060895002453
:102490000A9412161306140605060895092E0394CD
:1024A000000C11F4882352F0BB0F40F4BF2B11F441
:1024B00060FF04C06F5F7F4F8F4F9F4F089557FDA0
:1024C0009058440F551F59F05F3F71F04795880FA2
:1024D00097FB991F61F09F3F79F087950895121639
:1024E00013061406551FF2CF4695F1DF08C01616E5
:1024F00017061806991FF1CF869571056105089496
:102500000895E894BB2766277727CB0197F90895AC
:102510000BD0C4CFB5DF28F0BADF18F0952309F04F
:10252000A6CFABCF1124EECFCADFA0F3959FD1F396
:10253000950F50E0551F629FF001729FBB27F00D71
:10254000B11D639FAA27F00DB11DAA1F649F6627C6
:10255000B00DA11D661F829F2227B00DA11D621F15
:10256000739FB00DA11D621F839FA00D611D221FCF
:10257000749F3327A00D611D231F849F600D211DB3
:10258000822F762F6A2F11249F5750408AF0E1F056
:1025900088234AF0EE0FFF1FBB1F661F771F881F9F
:1025A00091505040A9F79E3F510570F060CFAACFDF
:1025B0005F3FECF3983EDCF3869577956795B7958A
:1025C000F795E7959F5FC1F7FE2B880F911D9695B4
:1025D000879597F90895DB018F939F930E941D13B0
:1025E000BF91AF91A29F800D911DA39F900DB29FAF
:1025F000900D11240895A1E21A2EAA1BBB1BFD0108
:102600000DC0AA1FBB1FEE1FFF1FA217B307E407D1
:10261000F50720F0A21BB30BE40BF50B661F771F29
:10262000881F991F1A9469F7609570958095909509
:102630009B01AC01BD01CF0108950E946513A59FC8
:10264000900DB49F900DA49F800D911D11240895AD
:102650000F93083090F0982F872F762F652F542FE7
:10266000432F322F22270850F4CF220F331F441F4D
:10267000551F661F771F881F991F0A95B2F70F9184
:10268000089597FB10F8169400080F93083098F0FF
:102690000850232F342F452F562F672F782F892F3F
:1026A000902DF4CF059497958795779567955795D5
:1026B0004795379527950A95AAF70F910895EE0F3C
:1026C000FF1F0590F491E02D0994A29FB001B39FE4
:1026D000C001A39F700D811D1124911DB29F700D2B
:0C26E000811D1124911D0895F894FFCF76
:1026EC000B00000000009D0E09101F0E380E2A0E64
:1026FC007B0E0D0A006E616E00696E66006F766669
:04270C00002E00009B
:107E0000112484B714BE81FFF0D085E080938100F7
:107E100082E08093C00088E18093C10086E0809377
:107E2000C20080E18093C4008EE0C9D0259A86E02C
:107E300020E33CEF91E0309385002093840096BBD3
:107E4000B09BFECF1D9AA8958150A9F7CC24DD24C4
:107E500088248394B5E0AB2EA1E19A2EF3E0BF2EE7
:107E6000A2D0813461F49FD0082FAFD0023811F036
:107E7000013811F484E001C083E08DD089C08234E0
:107E800011F484E103C0853419F485E0A6D080C0E4
:107E9000853579F488D0E82EFF2485D0082F10E0AE
:107EA000102F00270E291F29000F111F8ED06801E7
:107EB0006FC0863521F484E090D080E0DECF843638
:107EC00009F040C070D06FD0082F6DD080E0C81688
:107ED00080E7D80618F4F601B7BEE895C0E0D1E017
:107EE00062D089930C17E1F7F0E0CF16F0E7DF06D8
:107EF00018F0F601B7BEE89568D007B600FCFDCFD4
:107F0000A601A0E0B1E02C9130E011968C91119780
:107F100090E0982F8827822B932B1296FA010C0160
:107F200087BEE89511244E5F5F4FF1E0A038BF0790
:107F300051F7F601A7BEE89507B600FCFDCF97BE46
:107F4000E89526C08437B1F42ED02DD0F82E2BD052
:107F50003CD0F601EF2C8F010F5F1F4F84911BD097
:107F6000EA94F801C1F70894C11CD11CFA94CF0C13
:107F7000D11C0EC0853739F428D08EE10CD085E9AC
:107F80000AD08FE07ACF813511F488E018D01DD067
:107F900080E101D065CF982F8091C00085FFFCCF94
:107FA0009093C60008958091C00087FFFCCF809118
:107FB000C00084FD01C0A8958091C6000895E0E648
:107FC000F0E098E1908380830895EDDF803219F02E
:107FD00088E0F5DFFFCF84E1DECF1F93182FE3DFCA
:107FE0001150E9F7F2DF1F91089580E0E8DFEE27F6
:047FF000FF270994CA
:027FFE00040479
:0400000300007E007B
:00000001FF
